{
  "_format": "hh-sol-artifact-1",
  "contractName": "L1DepositContract",
  "sourceName": "contracts/L1DepositContract.sol",
  "abi": [
    {
      "inputs": [
        {
          "internalType": "address",
          "name": "initialOwner",
          "type": "address"
        },
        {
          "internalType": "address",
          "name": "_standardBridgeAddress",
          "type": "address"
        }
      ],
      "stateMutability": "nonpayable",
      "type": "constructor"
    },
    {
      "inputs": [
        {
          "internalType": "address",
          "name": "owner",
          "type": "address"
        }
      ],
      "name": "OwnableInvalidOwner",
      "type": "error"
    },
    {
      "inputs": [
        {
          "internalType": "address",
          "name": "account",
          "type": "address"
        }
      ],
      "name": "OwnableUnauthorizedAccount",
      "type": "error"
    },
    {
      "anonymous": false,
      "inputs": [
        {
          "indexed": true,
          "internalType": "address",
          "name": "bridgeAddress",
          "type": "address"
        },
        {
          "indexed": true,
          "internalType": "address",
          "name": "receiverAddress",
          "type": "address"
        },
        {
          "indexed": true,
          "internalType": "address",
          "name": "sender",
          "type": "address"
        },
        {
          "indexed": false,
          "internalType": "uint256",
          "name": "amount",
          "type": "uint256"
        }
      ],
      "name": "DepositDetails",
      "type": "event"
    },
    {
      "anonymous": false,
      "inputs": [
        {
          "indexed": true,
          "internalType": "address",
          "name": "sender",
          "type": "address"
        },
        {
          "indexed": false,
          "internalType": "uint256",
          "name": "amount",
          "type": "uint256"
        }
      ],
      "name": "Deposited",
      "type": "event"
    },
    {
      "anonymous": false,
      "inputs": [
        {
          "indexed": true,
          "internalType": "address",
          "name": "previousOwner",
          "type": "address"
        },
        {
          "indexed": true,
          "internalType": "address",
          "name": "newOwner",
          "type": "address"
        }
      ],
      "name": "OwnershipTransferred",
      "type": "event"
    },
    {
      "inputs": [],
      "name": "depositETH",
      "outputs": [],
      "stateMutability": "payable",
      "type": "function"
    },
    {
      "inputs": [],
      "name": "l2ReceiverContractAddress",
      "outputs": [
        {
          "internalType": "address",
          "name": "",
          "type": "address"
        }
      ],
      "stateMutability": "view",
      "type": "function"
    },
    {
      "inputs": [],
      "name": "owner",
      "outputs": [
        {
          "internalType": "address",
          "name": "",
          "type": "address"
        }
      ],
      "stateMutability": "view",
      "type": "function"
    },
    {
      "inputs": [],
      "name": "renounceOwnership",
      "outputs": [],
      "stateMutability": "nonpayable",
      "type": "function"
    },
    {
      "inputs": [
        {
          "internalType": "address",
          "name": "_l2ReceiverContractAddress",
          "type": "address"
        }
      ],
      "name": "setL2ReceiverContractAddress",
      "outputs": [],
      "stateMutability": "nonpayable",
      "type": "function"
    },
    {
      "inputs": [],
      "name": "standardBridgeAddress",
      "outputs": [
        {
          "internalType": "address",
          "name": "",
          "type": "address"
        }
      ],
      "stateMutability": "view",
      "type": "function"
    },
    {
      "inputs": [
        {
          "internalType": "address",
          "name": "newOwner",
          "type": "address"
        }
      ],
      "name": "transferOwnership",
      "outputs": [],
      "stateMutability": "nonpayable",
      "type": "function"
    }
  ],
  "bytecode": "0x608060405234801561001057600080fd5b50604051610d89380380610d8983398181016040528101906100329190610224565b81600073ffffffffffffffffffffffffffffffffffffffff168173ffffffffffffffffffffffffffffffffffffffff16036100a55760006040517f1e4fbdf700000000000000000000000000000000000000000000000000000000815260040161009c9190610273565b60405180910390fd5b6100b4816100fd60201b60201c565b5080600160006101000a81548173ffffffffffffffffffffffffffffffffffffffff021916908373ffffffffffffffffffffffffffffffffffffffff160217905550505061028e565b60008060009054906101000a900473ffffffffffffffffffffffffffffffffffffffff169050816000806101000a81548173ffffffffffffffffffffffffffffffffffffffff021916908373ffffffffffffffffffffffffffffffffffffffff1602179055508173ffffffffffffffffffffffffffffffffffffffff168173ffffffffffffffffffffffffffffffffffffffff167f8be0079c531659141344cd1fd0a4f28419497f9722a3daafe3b4186f6b6457e060405160405180910390a35050565b600080fd5b600073ffffffffffffffffffffffffffffffffffffffff82169050919050565b60006101f1826101c6565b9050919050565b610201816101e6565b811461020c57600080fd5b50565b60008151905061021e816101f8565b92915050565b6000806040838503121561023b5761023a6101c1565b5b60006102498582860161020f565b925050602061025a8582860161020f565b9150509250929050565b61026d816101e6565b82525050565b60006020820190506102886000830184610264565b92915050565b610aec8061029d6000396000f3fe6080604052600436106100705760003560e01c8063cb76da311161004e578063cb76da31146100e2578063e7da38591461010b578063f2fde38b14610136578063f6326fb31461015f57610070565b8063715018a6146100755780638da5cb5b1461008c578063ac812c8b146100b7575b600080fd5b34801561008157600080fd5b5061008a610169565b005b34801561009857600080fd5b506100a161017d565b6040516100ae9190610788565b60405180910390f35b3480156100c357600080fd5b506100cc6101a6565b6040516100d99190610788565b60405180910390f35b3480156100ee57600080fd5b50610109600480360381019061010491906107d4565b6101cc565b005b34801561011757600080fd5b50610120610218565b60405161012d9190610788565b60405180910390f35b34801561014257600080fd5b5061015d600480360381019061015891906107d4565b61023e565b005b6101676102c4565b005b6101716105f4565b61017b600061067b565b565b60008060009054906101000a900473ffffffffffffffffffffffffffffffffffffffff16905090565b600160009054906101000a900473ffffffffffffffffffffffffffffffffffffffff1681565b6101d46105f4565b80600260006101000a81548173ffffffffffffffffffffffffffffffffffffffff021916908373ffffffffffffffffffffffffffffffffffffffff16021790555050565b600260009054906101000a900473ffffffffffffffffffffffffffffffffffffffff1681565b6102466105f4565b600073ffffffffffffffffffffffffffffffffffffffff168173ffffffffffffffffffffffffffffffffffffffff16036102b85760006040517f1e4fbdf70000000000000000000000000000000000000000000000000000000081526004016102af9190610788565b60405180910390fd5b6102c18161067b565b50565b60003411610307576040517f08c379a00000000000000000000000000000000000000000000000000000000081526004016102fe90610884565b60405180910390fd5b600073ffffffffffffffffffffffffffffffffffffffff16600260009054906101000a900473ffffffffffffffffffffffffffffffffffffffff1673ffffffffffffffffffffffffffffffffffffffff1603610398576040517f08c379a000000000000000000000000000000000000000000000000000000000815260040161038f90610916565b60405180910390fd5b600033346040516024016103ad92919061094f565b6040516020818303038152906040527ff0dda65c000000000000000000000000000000000000000000000000000000007bffffffffffffffffffffffffffffffffffffffffffffffffffffffff19166020820180517bffffffffffffffffffffffffffffffffffffffffffffffffffffffff838183161783525050505090503373ffffffffffffffffffffffffffffffffffffffff16600260009054906101000a900473ffffffffffffffffffffffffffffffffffffffff1673ffffffffffffffffffffffffffffffffffffffff16600160009054906101000a900473ffffffffffffffffffffffffffffffffffffffff1673ffffffffffffffffffffffffffffffffffffffff167ffb304575c4a5aeec745d817c945d001940a0c0acd38ba99a78c40ff8adbddfdb346040516104e49190610978565b60405180910390a4600160009054906101000a900473ffffffffffffffffffffffffffffffffffffffff1673ffffffffffffffffffffffffffffffffffffffff16639a2ac6d534600260009054906101000a900473ffffffffffffffffffffffffffffffffffffffff16622dc6c0856040518563ffffffff1660e01b815260040161057193929190610a78565b6000604051808303818588803b15801561058a57600080fd5b505af115801561059e573d6000803e3d6000fd5b50505050503373ffffffffffffffffffffffffffffffffffffffff167f2da466a7b24304f47e87fa2e1e5a81b9831ce54fec19055ce277ca2f39ba42c4346040516105e99190610978565b60405180910390a250565b6105fc61073f565b73ffffffffffffffffffffffffffffffffffffffff1661061a61017d565b73ffffffffffffffffffffffffffffffffffffffff16146106795761063d61073f565b6040517f118cdaa70000000000000000000000000000000000000000000000000000000081526004016106709190610788565b60405180910390fd5b565b60008060009054906101000a900473ffffffffffffffffffffffffffffffffffffffff169050816000806101000a81548173ffffffffffffffffffffffffffffffffffffffff021916908373ffffffffffffffffffffffffffffffffffffffff1602179055508173ffffffffffffffffffffffffffffffffffffffff168173ffffffffffffffffffffffffffffffffffffffff167f8be0079c531659141344cd1fd0a4f28419497f9722a3daafe3b4186f6b6457e060405160405180910390a35050565b600033905090565b600073ffffffffffffffffffffffffffffffffffffffff82169050919050565b600061077282610747565b9050919050565b61078281610767565b82525050565b600060208201905061079d6000830184610779565b92915050565b600080fd5b6107b181610767565b81146107bc57600080fd5b50565b6000813590506107ce816107a8565b92915050565b6000602082840312156107ea576107e96107a3565b5b60006107f8848285016107bf565b91505092915050565b600082825260208201905092915050565b7f6465706f73697420616d6f756e74206d7573742062652067726561746572207460008201527f68616e2030000000000000000000000000000000000000000000000000000000602082015250565b600061086e602583610801565b915061087982610812565b604082019050919050565b6000602082019050818103600083015261089d81610861565b9050919050565b7f4c3220726563656976657220636f6e747261637420616464726573732069732060008201527f6e6f742073657400000000000000000000000000000000000000000000000000602082015250565b6000610900602783610801565b915061090b826108a4565b604082019050919050565b6000602082019050818103600083015261092f816108f3565b9050919050565b6000819050919050565b61094981610936565b82525050565b60006040820190506109646000830185610779565b6109716020830184610940565b9392505050565b600060208201905061098d6000830184610940565b92915050565b6000819050919050565b600063ffffffff82169050919050565b6000819050919050565b60006109d26109cd6109c884610993565b6109ad565b61099d565b9050919050565b6109e2816109b7565b82525050565b600081519050919050565b600082825260208201905092915050565b60005b83811015610a22578082015181840152602081019050610a07565b60008484015250505050565b6000601f19601f8301169050919050565b6000610a4a826109e8565b610a5481856109f3565b9350610a64818560208601610a04565b610a6d81610a2e565b840191505092915050565b6000606082019050610a8d6000830186610779565b610a9a60208301856109d9565b8181036040830152610aac8184610a3f565b905094935050505056fea2646970667358221220092376bf159c3843d49a7a7e12785c1124ff8187d52f5fadbf8ab033a44a73d064736f6c634300081c0033",
  "linkReferences": {},
  "deployedLinkReferences": {}
}