{
  "_format": "hh-sol-artifact-1",
  "contractName": "L1DepositContract",
  "sourceName": "contracts/L1DepositContract.sol",
  "abi": [
    {
      "inputs": [
        {
          "internalType": "address",
          "name": "initialOwner",
          "type": "address"
        },
        {
          "internalType": "address",
          "name": "_crossDomainMessengerAddress",
          "type": "address"
        }
      ],
      "stateMutability": "nonpayable",
      "type": "constructor"
    },
    {
      "inputs": [
        {
          "internalType": "address",
          "name": "owner",
          "type": "address"
        }
      ],
      "name": "OwnableInvalidOwner",
      "type": "error"
    },
    {
      "inputs": [
        {
          "internalType": "address",
          "name": "account",
          "type": "address"
        }
      ],
      "name": "OwnableUnauthorizedAccount",
      "type": "error"
    },
    {
      "anonymous": false,
      "inputs": [
        {
          "indexed": true,
          "internalType": "address",
          "name": "messengerAddress",
          "type": "address"
        },
        {
          "indexed": true,
          "internalType": "address",
          "name": "receiverAddress",
          "type": "address"
        },
        {
          "indexed": true,
          "internalType": "address",
          "name": "sender",
          "type": "address"
        }
      ],
      "name": "DepositDetails",
      "type": "event"
    },
    {
      "anonymous": false,
      "inputs": [
        {
          "indexed": true,
          "internalType": "address",
          "name": "sender",
          "type": "address"
        },
        {
          "indexed": false,
          "internalType": "uint256",
          "name": "amount",
          "type": "uint256"
        }
      ],
      "name": "Deposited",
      "type": "event"
    },
    {
      "anonymous": false,
      "inputs": [
        {
          "indexed": true,
          "internalType": "address",
          "name": "previousOwner",
          "type": "address"
        },
        {
          "indexed": true,
          "internalType": "address",
          "name": "newOwner",
          "type": "address"
        }
      ],
      "name": "OwnershipTransferred",
      "type": "event"
    },
    {
      "inputs": [],
      "name": "crossDomainMessengerAddress",
      "outputs": [
        {
          "internalType": "address",
          "name": "",
          "type": "address"
        }
      ],
      "stateMutability": "view",
      "type": "function"
    },
    {
      "inputs": [],
      "name": "depositETH",
      "outputs": [],
      "stateMutability": "payable",
      "type": "function"
    },
    {
      "inputs": [],
      "name": "l2ReceiverContractAddress",
      "outputs": [
        {
          "internalType": "address",
          "name": "",
          "type": "address"
        }
      ],
      "stateMutability": "view",
      "type": "function"
    },
    {
      "inputs": [],
      "name": "owner",
      "outputs": [
        {
          "internalType": "address",
          "name": "",
          "type": "address"
        }
      ],
      "stateMutability": "view",
      "type": "function"
    },
    {
      "inputs": [],
      "name": "renounceOwnership",
      "outputs": [],
      "stateMutability": "nonpayable",
      "type": "function"
    },
    {
      "inputs": [
        {
          "internalType": "address",
          "name": "_l2ReceiverContractAddress",
          "type": "address"
        }
      ],
      "name": "setL2ReceiverContractAddress",
      "outputs": [],
      "stateMutability": "nonpayable",
      "type": "function"
    },
    {
      "inputs": [
        {
          "internalType": "address",
          "name": "newOwner",
          "type": "address"
        }
      ],
      "name": "transferOwnership",
      "outputs": [],
      "stateMutability": "nonpayable",
      "type": "function"
    }
  ],
  "bytecode": "0x608060405234801561001057600080fd5b50604051610d7d380380610d7d83398181016040528101906100329190610224565b81600073ffffffffffffffffffffffffffffffffffffffff168173ffffffffffffffffffffffffffffffffffffffff16036100a55760006040517f1e4fbdf700000000000000000000000000000000000000000000000000000000815260040161009c9190610273565b60405180910390fd5b6100b4816100fd60201b60201c565b5080600160006101000a81548173ffffffffffffffffffffffffffffffffffffffff021916908373ffffffffffffffffffffffffffffffffffffffff160217905550505061028e565b60008060009054906101000a900473ffffffffffffffffffffffffffffffffffffffff169050816000806101000a81548173ffffffffffffffffffffffffffffffffffffffff021916908373ffffffffffffffffffffffffffffffffffffffff1602179055508173ffffffffffffffffffffffffffffffffffffffff168173ffffffffffffffffffffffffffffffffffffffff167f8be0079c531659141344cd1fd0a4f28419497f9722a3daafe3b4186f6b6457e060405160405180910390a35050565b600080fd5b600073ffffffffffffffffffffffffffffffffffffffff82169050919050565b60006101f1826101c6565b9050919050565b610201816101e6565b811461020c57600080fd5b50565b60008151905061021e816101f8565b92915050565b6000806040838503121561023b5761023a6101c1565b5b60006102498582860161020f565b925050602061025a8582860161020f565b9150509250929050565b61026d816101e6565b82525050565b60006020820190506102886000830184610264565b92915050565b610ae08061029d6000396000f3fe6080604052600436106100705760003560e01c8063cb76da311161004e578063cb76da31146100e2578063e7da38591461010b578063f2fde38b14610136578063f6326fb31461015f57610070565b806330d91c9314610075578063715018a6146100a05780638da5cb5b146100b7575b600080fd5b34801561008157600080fd5b5061008a610169565b604051610097919061077c565b60405180910390f35b3480156100ac57600080fd5b506100b561018f565b005b3480156100c357600080fd5b506100cc6101a3565b6040516100d9919061077c565b60405180910390f35b3480156100ee57600080fd5b50610109600480360381019061010491906107c8565b6101cc565b005b34801561011757600080fd5b50610120610218565b60405161012d919061077c565b60405180910390f35b34801561014257600080fd5b5061015d600480360381019061015891906107c8565b61023e565b005b6101676102c4565b005b600160009054906101000a900473ffffffffffffffffffffffffffffffffffffffff1681565b6101976105e8565b6101a1600061066f565b565b60008060009054906101000a900473ffffffffffffffffffffffffffffffffffffffff16905090565b6101d46105e8565b80600260006101000a81548173ffffffffffffffffffffffffffffffffffffffff021916908373ffffffffffffffffffffffffffffffffffffffff16021790555050565b600260009054906101000a900473ffffffffffffffffffffffffffffffffffffffff1681565b6102466105e8565b600073ffffffffffffffffffffffffffffffffffffffff168173ffffffffffffffffffffffffffffffffffffffff16036102b85760006040517f1e4fbdf70000000000000000000000000000000000000000000000000000000081526004016102af919061077c565b60405180910390fd5b6102c18161066f565b50565b60003411610307576040517f08c379a00000000000000000000000000000000000000000000000000000000081526004016102fe90610878565b60405180910390fd5b600073ffffffffffffffffffffffffffffffffffffffff16600260009054906101000a900473ffffffffffffffffffffffffffffffffffffffff1673ffffffffffffffffffffffffffffffffffffffff1603610398576040517f08c379a000000000000000000000000000000000000000000000000000000000815260040161038f9061090a565b60405180910390fd5b3373ffffffffffffffffffffffffffffffffffffffff16600260009054906101000a900473ffffffffffffffffffffffffffffffffffffffff1673ffffffffffffffffffffffffffffffffffffffff16600160009054906101000a900473ffffffffffffffffffffffffffffffffffffffff1673ffffffffffffffffffffffffffffffffffffffff167f866d5a218a8e21bde070ccf5b4737ecc5df9cca18163a794111b4a5516dd310160405160405180910390a460003334604051602401610462929190610943565b6040516020818303038152906040527ff0dda65c000000000000000000000000000000000000000000000000000000007bffffffffffffffffffffffffffffffffffffffffffffffffffffffff19166020820180517bffffffffffffffffffffffffffffffffffffffffffffffffffffffff83818316178352505050509050600160009054906101000a900473ffffffffffffffffffffffffffffffffffffffff1673ffffffffffffffffffffffffffffffffffffffff16633dbb202b600260009054906101000a900473ffffffffffffffffffffffffffffffffffffffff1683621e84806040518463ffffffff1660e01b815260040161056593929190610a51565b600060405180830381600087803b15801561057f57600080fd5b505af1158015610593573d6000803e3d6000fd5b505050503373ffffffffffffffffffffffffffffffffffffffff167f2da466a7b24304f47e87fa2e1e5a81b9831ce54fec19055ce277ca2f39ba42c4346040516105dd9190610a8f565b60405180910390a250565b6105f0610733565b73ffffffffffffffffffffffffffffffffffffffff1661060e6101a3565b73ffffffffffffffffffffffffffffffffffffffff161461066d57610631610733565b6040517f118cdaa7000000000000000000000000000000000000000000000000000000008152600401610664919061077c565b60405180910390fd5b565b60008060009054906101000a900473ffffffffffffffffffffffffffffffffffffffff169050816000806101000a81548173ffffffffffffffffffffffffffffffffffffffff021916908373ffffffffffffffffffffffffffffffffffffffff1602179055508173ffffffffffffffffffffffffffffffffffffffff168173ffffffffffffffffffffffffffffffffffffffff167f8be0079c531659141344cd1fd0a4f28419497f9722a3daafe3b4186f6b6457e060405160405180910390a35050565b600033905090565b600073ffffffffffffffffffffffffffffffffffffffff82169050919050565b60006107668261073b565b9050919050565b6107768161075b565b82525050565b6000602082019050610791600083018461076d565b92915050565b600080fd5b6107a58161075b565b81146107b057600080fd5b50565b6000813590506107c28161079c565b92915050565b6000602082840312156107de576107dd610797565b5b60006107ec848285016107b3565b91505092915050565b600082825260208201905092915050565b7f6465706f73697420616d6f756e74206d7573742062652067726561746572207460008201527f68616e2030000000000000000000000000000000000000000000000000000000602082015250565b60006108626025836107f5565b915061086d82610806565b604082019050919050565b6000602082019050818103600083015261089181610855565b9050919050565b7f4c3220726563656976657220636f6e747261637420616464726573732069732060008201527f6e6f742073657400000000000000000000000000000000000000000000000000602082015250565b60006108f46027836107f5565b91506108ff82610898565b604082019050919050565b60006020820190508181036000830152610923816108e7565b9050919050565b6000819050919050565b61093d8161092a565b82525050565b6000604082019050610958600083018561076d565b6109656020830184610934565b9392505050565b600081519050919050565b600082825260208201905092915050565b60005b838110156109a657808201518184015260208101905061098b565b60008484015250505050565b6000601f19601f8301169050919050565b60006109ce8261096c565b6109d88185610977565b93506109e8818560208601610988565b6109f1816109b2565b840191505092915050565b6000819050919050565b600063ffffffff82169050919050565b6000819050919050565b6000610a3b610a36610a31846109fc565b610a16565b610a06565b9050919050565b610a4b81610a20565b82525050565b6000606082019050610a66600083018661076d565b8181036020830152610a7881856109c3565b9050610a876040830184610a42565b949350505050565b6000602082019050610aa46000830184610934565b9291505056fea26469706673582212201c61305c02297f28c57f565728bb8e357bcc5cab7cce674f76cc8a7b4998760364736f6c634300081c0033",
  "linkReferences": {},
  "deployedLinkReferences": {}
}